{
  "contractName": "PrivacyPreservingDelivery",
  "abi": [
    {
      "inputs": [],
      "stateMutability": "nonpayable",
      "type": "constructor"
    },
    {
      "anonymous": false,
      "inputs": [
        {
          "indexed": false,
          "internalType": "string",
          "name": "stepReveal",
          "type": "string"
        }
      ],
      "name": "Reveal",
      "type": "event"
    },
    {
      "anonymous": false,
      "inputs": [
        {
          "indexed": false,
          "internalType": "bool",
          "name": "result",
          "type": "bool"
        }
      ],
      "name": "commitEvent",
      "type": "event"
    },
    {
      "inputs": [
        {
          "internalType": "address",
          "name": "_address",
          "type": "address"
        }
      ],
      "name": "addAgent",
      "outputs": [
        {
          "internalType": "bool",
          "name": "",
          "type": "bool"
        }
      ],
      "stateMutability": "payable",
      "type": "function"
    },
    {
      "inputs": [
        {
          "internalType": "string",
          "name": "dataHash1",
          "type": "string"
        },
        {
          "internalType": "string",
          "name": "dataHash2",
          "type": "string"
        },
        {
          "internalType": "string",
          "name": "dataHash3",
          "type": "string"
        },
        {
          "internalType": "string",
          "name": "dataHash4",
          "type": "string"
        },
        {
          "internalType": "string",
          "name": "dataHash5",
          "type": "string"
        },
        {
          "internalType": "string",
          "name": "dataHash6",
          "type": "string"
        }
      ],
      "name": "commitAddresses",
      "outputs": [
        {
          "internalType": "bool",
          "name": "",
          "type": "bool"
        }
      ],
      "stateMutability": "nonpayable",
      "type": "function"
    },
    {
      "inputs": [],
      "name": "getOrdernumber",
      "outputs": [
        {
          "internalType": "uint256",
          "name": "",
          "type": "uint256"
        }
      ],
      "stateMutability": "view",
      "type": "function"
    },
    {
      "inputs": [],
      "name": "revealAddress",
      "outputs": [],
      "stateMutability": "payable",
      "type": "function"
    }
  ],
  "bytecode": "0x60806040526004805462ff00001916905534801561001c57600080fd5b5042600155600280546001600160a01b03191633179055610aa7806100426000396000f3fe60806040526004361061003f5760003560e01c8063068545e11461004457806384e7984214610079578063a293996c1461008c578063fccb47ba14610096575b600080fd5b34801561005057600080fd5b5061006461005f3660046107ed565b6100b9565b60405190151581526020015b60405180910390f35b6100646100873660046108e2565b61018c565b6100946101cf565b005b3480156100a257600080fd5b506100ab61056b565b604051908152602001610070565b3360009081526020819052604081205460ff16156100d657600080fd5b6002546001600160a01b03163314156100ee57600080fd5b6004805461ffff191690556101028761058c565b61010b8661058c565b6101148561058c565b61011d8461058c565b6101268361058c565b61012f8261058c565b6004805462ff00ff191662010001179055610148610665565b600555604051600181527f06a76ab52ba9027635deeeb80f8a0af3862a0abedfb95e8137d793dadd5a4a459060200160405180910390a15060019695505050505050565b6002546000906001600160a01b031633146101a657600080fd5b506001600160a01b03166000908152602081905260409020805460ff1916600190811790915590565b33803b63ffffffff16156101e257600080fd5b3360009081526020819052604090205460ff16151560011461020357600080fd5b6002546001600160a01b031633141561021b57600080fd5b336000908152602081905260409020805460ff19169055600160045460ff16600781111561024b5761024b610912565b148061026d5750600260045460ff16600781111561026b5761026b610912565b145b8061028e5750600360045460ff16600781111561028c5761028c610912565b145b806102ae57506004805460ff1660078111156102ac576102ac610912565b145b806102cf5750600560045460ff1660078111156102cd576102cd610912565b145b806102f05750600660045460ff1660078111156102ee576102ee610912565b145b6102f957600080fd5b600354600454610100900460ff161061031157600080fd5b600454600380549091610100900460ff1690811061033157610331610928565b6000918252602090912060029091020160010154600160401b900460ff161561035957600080fd5b60045460038054600192610100900460ff1690811061037a5761037a610928565b60009182526020909120600160029092020181018054921515600160401b0268ff0000000000000000199093169290921790915560045460ff1660078111156103c5576103c5610912565b14156103e557600480546002919060ff19166001835b02179055506104da565b600260045460ff1660078111156103fe576103fe610912565b141561041857600480546003919060ff19166001836103db565b600360045460ff16600781111561043157610431610912565b14156104495760048054819060ff19166001826103db565b6004805460ff16600781111561046157610461610912565b141561047b57600480546005919060ff19166001836103db565b6004805460ff16600781111561049357610493610912565b14156104ad57600480546006919060ff19166001836103db565b600660045460ff1660078111156104c6576104c6610912565b14156104da576004805460ff191660071790555b600480547ff040279f20c4475afca9a566d33b14e09c92fcb6460fb4121fadf563ab9ecc1f91600391610100900460ff169060016105178361093e565b91906101000a81548160ff021916908360ff16021790555060ff168154811061054257610542610928565b906000526020600020906002020160000160405161056091906109a7565b60405180910390a150565b6002546000906001600160a01b0316331461058557600080fd5b5060055490565b600060045460ff1660078111156105a5576105a5610912565b146105af57600080fd5b6040805160608101825282815267ffffffffffffffff43166020808301919091526000928201839052600380546001810182559352815180519293849360029091027fc2575a0e9e593c00f959f8c92f12db2869c3395a3b0502d05e2516446f71f85b01926106229284929101906106b1565b506020820151600190910180546040909301511515600160401b0268ffffffffffffffffff1990931667ffffffffffffffff909216919091179190911790555050565b60006402540be4004442604051602001610689929190918252602082015260400190565b6040516020818303038152906040528051906020012060001c6106ac9190610a4f565b905090565b8280546106bd9061096c565b90600052602060002090601f0160209004810192826106df5760008555610725565b82601f106106f857805160ff1916838001178555610725565b82800160010185558215610725579182015b8281111561072557825182559160200191906001019061070a565b50610731929150610735565b5090565b5b808211156107315760008155600101610736565b634e487b7160e01b600052604160045260246000fd5b600082601f83011261077157600080fd5b813567ffffffffffffffff8082111561078c5761078c61074a565b604051601f8301601f19908116603f011681019082821181831017156107b4576107b461074a565b816040528381528660208588010111156107cd57600080fd5b836020870160208301376000602085830101528094505050505092915050565b60008060008060008060c0878903121561080657600080fd5b863567ffffffffffffffff8082111561081e57600080fd5b61082a8a838b01610760565b9750602089013591508082111561084057600080fd5b61084c8a838b01610760565b9650604089013591508082111561086257600080fd5b61086e8a838b01610760565b9550606089013591508082111561088457600080fd5b6108908a838b01610760565b945060808901359150808211156108a657600080fd5b6108b28a838b01610760565b935060a08901359150808211156108c857600080fd5b506108d589828a01610760565b9150509295509295509295565b6000602082840312156108f457600080fd5b81356001600160a01b038116811461090b57600080fd5b9392505050565b634e487b7160e01b600052602160045260246000fd5b634e487b7160e01b600052603260045260246000fd5b600060ff821660ff81141561096357634e487b7160e01b600052601160045260246000fd5b60010192915050565b600181811c9082168061098057607f821691505b602082108114156109a157634e487b7160e01b600052602260045260246000fd5b50919050565b600060208083526000845481600182811c9150808316806109c957607f831692505b8583108114156109e757634e487b7160e01b85526022600452602485fd5b878601838152602001818015610a045760018114610a1557610a40565b60ff19861682528782019650610a40565b60008b81526020902060005b86811015610a3a57815484820152908501908901610a21565b83019750505b50949998505050505050505050565b600082610a6c57634e487b7160e01b600052601260045260246000fd5b50069056fea2646970667358221220516aadc19bb31953b5d99cc12df3652edc252ddd8c6ee644cd3da5ee5fe8f7f664736f6c634300080b0033",
  "immutableReferences": {},
  "source": "// SPDX-License-Identifier: GPL-3.0\n\npragma solidity ^0.8.11;\n\ncontract PrivacyPreservingDelivery {\n    //address agentAddr;\n    mapping(address => bool) agentAddr;\n    uint256 start;\n    address owner;\n    CommitChoice[] commits;\n    Stages stage;\n    uint8 commitIndex;\n    bool committed = false;\n    uint256 orderID;\n\n    enum Stages {\n        InitialCommit,\n        FirstReveal,\n        SecondReveal,\n        ThirdReveal,\n        FourthReveal,\n        FifthReveal,\n        SixthReveal,\n        Delivered\n    }\n\n    struct CommitChoice {\n        string commitment;\n        uint64 block;\n        bool revealed;\n    }\n\n    constructor() {\n        start = block.timestamp;\n        owner = msg.sender;\n    }\n\n    modifier restricted() {\n        require(msg.sender == owner);\n        _;\n    }\n\n    modifier isAgent() {\n        require(agentAddr[msg.sender] == true);\n        require(msg.sender != owner);\n        _;\n    }\n\n    modifier isNotAgentandOwner() {\n        require(agentAddr[msg.sender] == false);\n        require(msg.sender != owner);\n        _;\n    }\n\n    modifier iscontact(address _addr) {\n        require(isContract(_addr) == false);\n        _;\n    }\n\n    function isContract(address _addr) private view returns (bool) {\n        uint32 size;\n        assembly {\n            size := extcodesize(_addr)\n        }\n        return (size > 0);\n    }\n\n    function addAgent(address _address)\n        external\n        payable\n        restricted\n        returns (bool)\n    {\n        agentAddr[_address] = true;\n        return true;\n    }\n\n    event commitEvent(bool result);\n\n    function commitAddresses(\n        string memory dataHash1,\n        string memory dataHash2,\n        string memory dataHash3,\n        string memory dataHash4,\n        string memory dataHash5,\n        string memory dataHash6\n    ) public isNotAgentandOwner returns (bool) {\n        stage = Stages.InitialCommit;\n        commitIndex = 0;\n        commit(dataHash1);\n        commit(dataHash2);\n        commit(dataHash3);\n        commit(dataHash4);\n        commit(dataHash5);\n        commit(dataHash6);\n\n        stage = Stages.FirstReveal;\n        committed = true;\n        orderID = random();\n        emit commitEvent(true);\n        return true;\n    }\n\n    function getOrdernumber() external view restricted returns (uint256) {\n        return orderID;\n    }\n\n    // function isCommitted() external view restricted returns (bool) {\n    //     require(committed == true);\n    //     return true;\n    // }\n\n    function commit(string memory dataHash) private {\n        require(stage == Stages.InitialCommit);\n\n        CommitChoice memory commitChoice = CommitChoice(\n            dataHash,\n            uint64(block.number),\n            false\n        );\n        commits.push(commitChoice);\n    }\n\n    event Reveal(string stepReveal);\n\n    function revealAddress() external payable iscontact(msg.sender) isAgent {\n        agentAddr[msg.sender] = false;\n        require(\n            stage == Stages.FirstReveal ||\n                stage == Stages.SecondReveal ||\n                stage == Stages.ThirdReveal ||\n                stage == Stages.FourthReveal ||\n                stage == Stages.FifthReveal ||\n                stage == Stages.SixthReveal\n        );\n        require(commitIndex < commits.length);\n        require(commits[commitIndex].revealed == false);\n        commits[commitIndex].revealed = true;\n\n        if (stage == Stages.FirstReveal) stage = Stages.SecondReveal;\n        else if (stage == Stages.SecondReveal) stage = Stages.ThirdReveal;\n        else if (stage == Stages.ThirdReveal) stage = Stages.FourthReveal;\n        else if (stage == Stages.FourthReveal) stage = Stages.FifthReveal;\n        else if (stage == Stages.FourthReveal) stage = Stages.SixthReveal;\n        else if (stage == Stages.SixthReveal) stage = Stages.Delivered;\n        emit Reveal(commits[commitIndex++].commitment);\n    }\n\n    function random() private view returns (uint256) {\n        return\n            uint256(\n                keccak256(abi.encodePacked(block.difficulty, block.timestamp))\n            ) % 10000000000;\n    }\n}\n",
  "sourcePath": "/Users/shahinzanbaghi/Desktop/MSc thesis/Project/contracts/PrivacyPreservingDelivery.sol",
  "compiler": {
    "name": "solc",
    "version": "0.8.11+commit.d7f03943.Emscripten.clang"
  },
  "schemaVersion": "3.4.2",
  "updatedAt": "2022-03-04T05:13:31.670Z",
  "devdoc": {
    "kind": "dev",
    "methods": {},
    "version": 1
  },
  "userdoc": {
    "kind": "user",
    "methods": {},
    "version": 1
  }
}